:020000020000FC
:040000000C9430002C
:1000600000EC05BFC0E2D5E000E201500DBF01E0A9
:1000700000400EBF0E946E01002309F424D0E0E688
:10008000F0E000E010E00E947E01EEECF0E000E61F
:1000900010E040E050E00E947001E0E2F5E000E096
:1000A00010E00E947E01EEECF0E000E215E040E09E
:1000B00050E00E947001EEECF0E000E215E040E05C
:1000C00050E00E9470010E946F000C946D010100CD
:1000D00002000400080010002000400080000027FB
:1000E00000931010002700931110002700931210A6
:1000F00000270093131000270093141005B7006821
:1001000005BF01E0002359F000930010109100108A
:10011000101719F0009311100895000FF3CF40E06D
:1001200050E860E070E000E010E820E030E015D03A
:10013000002391F440E050E061E070E000E010E462
:1001400020E030E00AD0002339F405E500931010D8
:1001500001E010E0012BE1F708950E9489019AEA7D
:10016000E5E5CE2E042E152E262E372E3694279416
:1001700017940794E02FF12FA02DB12DEA0FFB1F4C
:100180009083802E912EA22EB32E800C911CA21C47
:10019000B31CE02DE129E229E32941F7042E152EB5
:1001A000262E372E80E13694279417940794E02F5B
:1001B000F12FA02DB12DEA0FFB1FC0828A95842E4E
:1001C000952EA62EB72EB694A79497948794E02FD9
:1001D000F12FA82DB92DEA0FFB1F4080552466246E
:1001E0007724E02FF12FA82DB92DEA0FFB1FA08156
:1001F000A91709F448C0081419042A043B0409F497
:1002000042C0402E512E622E732E400C511C621C97
:10021000731C003040E4140740E0240740E034073A
:1002200029F401E00093141001E054C000E8001626
:1002300000E0100600E0200600E0300678F0E82F2D
:10024000FF27EE0FFF1FE254FF4FC895002D319698
:10025000C895102D31960093131013C0000C111C7B
:10026000221C331C002D01290229032941F401E03D
:10027000002E00E0102E00E0202E00E0302E009234
:10028000121001E027C0E82DE929EA29EB2909F03D
:100290009ACF9A3A11F0E1E001C0EE27E0FBF0F9C5
:1002A000E5E5CE1611F0E1E001C0EE27E0FBF0FD40
:1002B000689416F401E00EC0E02FF12FA02DB12DAF
:1002C000EA0FFB1F9083E02DE129E229E32909F0E1
:1002D0006ACF0027EDE00C949A01FFCF01E008956A
:1002E000BF93AF93A02FB12F03C0C89531960D9245
:1002F00041505040D0F7AF91BF910895002401C004
:10030000019201501040E0F708950000FA92EA923D
:10031000DA92CA92BA92AA929A928A927A926A923D
:100320005A924A92BA93AA939A938A930895FF8411
:10033000EE84DD84CC84BB84AA84998488847F8005
:100340006E805D804C80BB81AA8199818881F0E0BC
:0C0350000FB6F894CE0FDF1F0FBE08950B
:00000001FF
